:020000040800F2
:1000000000000220253B0008790700087B07000854
:100010007D0700087F070008810700080000000036
:10002000000000000000000000000000513800083F
:100030008307000800000000F13800088507000869
:10004000753B0008753B0008753B0008753B0008D0
:10005000753B0008753B0008753B0008753B0008C0
:10006000753B0008753B0008753B0008753B0008B0
:10007000753B0008753B0008753B0008753B0008A0
:10008000753B0008753B0008753B0008753B000890
:10009000753B0008753B0008753B0008753B000880
:1000A000753B0008753B0008753B0008753B000870
:1000B000753B0008753B0008753B0008753B000860
:1000C000753B0008753B0008753B0008753B000850
:1000D000753B0008753B0008753B0008753B000840
:1000E000753B0008753B0008753B0008753B000830
:1000F000753B0008753B0008753B0008753B000820
:10010000753B0008753B0008753B0008753B00080F
:10011000753B0008753B0008753B0008753B0008FF
:10012000753B0008753B0008753B0008753B0008EF
:10013000753B00080000000000000000753B00084F
:10014000753B0008753B0008753B0008753B0008CF
:10015000753B0008753B0008753B0008753B0008BF
:10016000753B0008753B0008753B0008753B0008AF
:10017000753B0008753B0008753B00080000000057
:1001800000000000753B00080000000000000000B7
:10019000753B00080000000000000000753B0008EF
:1001A000000000000000000000000000753B000897
:1001B000753B0008753B0008753B0008753B00085F
:0401C000753B000883
:1001D00010B5054C237833B9044B13B10448AFF381
:1001E00000800123237010BD1000002000000000DB
:1001F000EC3B000808B5034B1BB103490348AFF3C0
:10020000008008BD0000000014000020EC3B000846
:1002100053B94AB9002908BF00281CBF4FF0FF316D
:100220004FF0FF3000F06EB9ADF1080C6DE904CE6F
:1002300000F006F8DDF804E0DDE9022304B07047C1
:100240002DE9F047089D04468C46002B40F0838042
:100250008A42174647D9B2FA82F242B1C2F120006F
:1002600024FA00F09140974040EA010C94404FEA94
:100270001748230CBCFBF8F61FFA87FE08FB16C1D3
:1002800043EA014306FB0EF1994209D9FB1806F136
:10029000FF3080F01981994240F21681023E3B44C2
:1002A0005B1AA4B2B3FBF8F008FB103344EA034432
:1002B00000FB0EFEA64509D93C1900F1FF3380F082
:1002C0000581A64540F2028102383C4440EA0640DE
:1002D000A4EB0E0400261DB1D4400023C5E9004361
:1002E0003146BDE8F08702B9FFDEB2FA82F2002A99
:1002F00050D1CB1B4FEA174E1FFA87F80126B3FBEC
:10030000FEFC210C0EFB1C3341EA034108FB0CF3FD
:100310008B4207D979180CF1FF3002D28B4200F2E0
:10032000E9808446C91AA3B2B1FBFEF00EFB10119E
:1003300043EA014408FB00F8A04507D93C1900F145
:10034000FF3302D2A04500F2D9801846A4EB08047E
:1003500040EA0C40BFE78B4209D9002D00F0B18084
:100360000026C5E9000130463146BDE8F087B3FA02
:1003700083F6002E4AD18B4202D3824200F2B8802B
:10038000841A61EB030101208C46002DA8D0C5E939
:10039000004CA5E7C2F1200320FA03F6974001FACA
:1003A00002F04FEA174ED9403043030CB1FBFEF682
:1003B0001FFA87F80EFB161143EA014306FB08F10A
:1003C000994204FA02F409D9FB1806F1FF3C80F0C7
:1003D0008D80994240F28A80023E3B445B1A81B292
:1003E000B3FBFEF00EFB103341EA034100FB08F3C0
:1003F0008B4207D9791800F1FF3C73D28B4271D937
:1004000002383944CB1A40EA064678E7C6F1200C98
:1004100003FA06F422FA0CF31C4320FA0CF701FA53
:1004200006F34FEA144E21FA0CF11F433B0CB1FBCB
:10043000FEF91FFA84F80EFB191143EA014109FB8A
:1004400008FA8A4502FA06F200FA06F308D961189A
:1004500009F1FF3048D28A4546D9A9F10209214461
:10046000A1EB0A01BFB2B1FBFEF00EFB101147EA8F
:10047000014700FB08F8B84507D9E71900F1FF313B
:100480002ED2B8452CD90238274440EA0940A7EBC0
:100490000807A0FB02894F45C64649461AD317D024
:1004A0005DB1B3EB0E0267EB010707FA0CFCF240FB
:1004B0004CEA0202F740C5E9002700263146BDE8B4
:1004C000F0872E4628460BE70646E9E61846FDE685
:1004D0004345E5D2B8EB020E69EB04010138DFE7D2
:1004E0000846D2E760468DE78146B9E7664675E77C
:1004F00030464AE7ACF1020C394413E702383C4479
:1005000024E700BF704700BF30B58BB000240594CE
:1005100006940794089409940194224B1A6B42F0B4
:1005200004021A631A6B02F004020192019A029407
:100530001A6B42F080021A631A6B02F08002029278
:10054000029A03941A6B42F001021A631A6B02F0CA
:1005500001020392039A04941A6B42F002021A6396
:100560001B6B03F002030493049B0F4D22462021D2
:10057000284601F045F84FF4005305930B4B0693C2
:10058000079405A90A4800F05BFF20230593012387
:1005900006930794089405A9284600F051FF0BB074
:1005A00030BD00BF003802400000024000002110B2
:1005B0000008024000B585B00B4A01AB07CA03C36F
:1005C0001A802021094801F021F80A231A4601A9BE
:1005D000074801F03EFA4FF47A7001F0CFF84FF47B
:1005E0007A7002F099FFE7E7043C0008000002403F
:1005F000F84B002072B6FEE708B50A480A4B0360C4
:100600004FF4E133436000238360C36003610C2235
:1006100042618361C36101F0EDF900B908BDFFF7E4
:10062000E9FF00BFF84B00200044004008B509482E
:100630004FF0A04303600C2383600123C3600022BA
:10064000026102228261C36101F074FA00B908BD3F
:10065000FFF7D0FF3449002010B5ACB034220021A0
:100660001FA803F0BBFA00241A941B941C941D9439
:100670001E945C22214603A803F0B0FA0194254B96
:100680001A6C42F080521A641B6C03F08053019381
:10069000019B0294204A136823F4404343F48043AF
:1006A0001360136803F440430293029B02231F93D9
:1006B00001222292102223922593269427924FF40E
:1006C000A8722892042229922A932B931FA800F043
:1006D000D3FCC0B90F231A9302211B9100231C9352
:1006E0004FF480521D921E931AA800F0F7F860B9DB
:1006F0004FF4807303930023189303A800F0C4F908
:1007000028B92CB010BDFFF775FFFFF773FFFFF797
:1007100071FF00BF003802400070004000B587B094
:1007200001F000F8FFF798FFFFF7EEFEFFF764FF18
:10073000FFF77CFF02F042FE0A4A00210A4802F05D
:100740007FFE0A4B186002F057FE01AC084D0FCD3A
:100750000FC42B6823800A23122201A9054801F047
:1007600078F9F2E7303C0008B50500083049002070
:10077000103C0008F84B0020FEE7FEE7FEE7FEE72E
:10078000FEE7704708B500F0E7FF02F095FB01288F
:1007900000D108BD03F0DEF8FBE7000000B583B030
:1007A000002200920D4B596C41F480415964596C00
:1007B00001F48041009100990192196C41F080513F
:1007C00019641B6C03F080530193019B0F216FF0A0
:1007D000010000F037FF03B05DF804FB0038024071
:1007E00000B589B000230393049305930693079300
:1007F0000268154B9A4202D009B05DF804FB002252
:10080000019203F5FA33196C41F400311964196C43
:1008100001F40031019101990292196B41F001013B
:1008200019631B6B03F001030293029B0C230393D8
:10083000022304930592032306930723079303A936
:10084000024800F0FDFDD7E70044004000000240F0
:1008500070B588B000230393049305930693079320
:100860000368B3F1A04F01D008B070BD0025019519
:10087000184C236B43F001032363236B03F0010344
:100880000193019B4FF4C8530393022304930595EE
:10089000032306930A2307930F4E03A9304600F063
:1008A000CFFD4FF4007303930495059503A93046DB
:1008B00000F0C6FD636B43F0800363630295636CD5
:1008C00043F480436364636C03F480430293029BAC
:1008D000CAE700BF0038024000000240002800F0D4
:1008E0009B8070B50D4604464F4B1B6803F00F0309
:1008F0008B4208D2CBB24C4A1370136803F00F033B
:100900008B4240F08B80236813F0020F17D013F056
:10091000040F04D0454A936843F4E053936023687E
:1009200013F0080F04D0414A936843F46043936086
:100930003E4A936823F0F003A1680B439360236859
:1009400013F0010F32D06368012B21D09A1E012AC7
:1009500025D9364A126812F0020F61D033498A68ED
:1009600022F0030213438B6000F002FF06462F4B78
:100970009B6803F00C036268B3EB820F16D000F0A3
:10098000F7FE801B41F288339842F0D9032042E001
:10099000264A126812F4003FE0D101203BE0234ACE
:1009A000126812F0007FD9D1012034E01E4B1B6881
:1009B00003F00F03AB4207D9EAB21B4B1A701B6856
:1009C00003F00F03AB422DD1236813F0040F06D0C0
:1009D000164A936823F4E053E1680B43936023685D
:1009E00013F0080F07D0114A936823F4604321697C
:1009F00043EAC103936000F083FA0C4B9B68C3F396
:100A000003130B4AD35CD8400A4B18600A4B186892
:100A100000F062FE002070BD012070470120FAE75F
:100A20000120F8E70120F6E7003C024000380240D0
:100A3000543C00080800002004000020014B186806
:100A4000704700BF0800002008B5FFF7F7FF044B10
:100A50009B68C3F38223034AD35CD84008BD00BF20
:100A600000380240643C000808B5FFF7E7FF044B7C
:100A70009B68C3F34233034AD35CD84008BD00BF30
:100A800000380240643C0008F0B583B004460668B4
:100A900016F001060DD0954AD2F88C3023F0C063D1
:100AA000816B0B43C2F88C30836B002B00F09A8073
:100AB0000026236813F0020F0BD08C4AD2F88C303A
:100AC00023F0C053E16B0B43C2F88C30E36B03B9E6
:100AD0000126256815F004050FD0844AD2F88C3021
:100AE00023F44013216B0B43C2F88C30236BB3F516
:100AF000801F79D0002B79D00025236813F0080FD0
:100B00000ED07A4AD2F88C3023F44003616B0B4349
:100B1000C2F88C30636BB3F5800F69D003B901253F
:100B2000236813F0200F65D1236813F0100F03D052
:100B300094F858206E4B1A60236813F0800F08D089
:100B40006A4AD2F8943023F44003E16C0B43C2F8B4
:100B50009430236813F0400F08D0644AD2F89430E0
:100B600023F08063A16C0B43C2F89430236813F424
:100B7000807F0DD05D4AD2F8943023F00063616D20
:100B80000B43C2F89430636DB3F1006F00F09980AD
:100B9000236813F4007F08D0544AD2F8943023F02D
:100BA0008053616C0B43C2F89430236813F4806F58
:100BB0000CD04E4AD2F8943023F00053216D0B43F1
:100BC000C2F89430236DB3F1005F7CD0002E7AD14F
:100BD0002368B3F5006F76D0012D00F02681002048
:100BE00003B0F0BD012664E7012683E7012584E711
:100BF000012693E7002301933C4B1A6C42F080528C
:100C00001A641B6C03F080530193019B394A1368EB
:100C100043F48073136000F0ABFD0746354B1B684F
:100C200013F4807F06D100F0A3FDC01B0228F5D984
:100C30000320D5E72D4B1B6F13F4407312D0226CA9
:100C400002F440729A420DD0284B1A6F22F440727F
:100C5000294901200860002008601A671B6F13F003
:100C6000010F12D1236C03F44072B2F5407F1DD006
:100C70001E4A936823F4F81393601C490B6F226C8F
:100C8000C2F30B0213430B674EE700F071FD0746FA
:100C9000164B1B6F13F0020FE4D100F069FDC01B6F
:100CA00041F288339842F3D9032099E70F498A68C3
:100CB00022F4F81223F0704323F4407313438B6043
:100CC000DBE7012564E70D4B00221A6000F050FDC0
:100CD0000646064B1B6813F0006F11D000F048FD6C
:100CE000801B0228F5D903207AE700BF00380240B4
:100CF000E011474200700040400E47426800474202
:100D0000236813F0010F01D0A26B22B113F0020F80
:100D100015D0E36B9BB9774AD2F88400D2F88410DF
:100D20006368A66843EA861300F44030034301F089
:100D300070610B43616943EA0173C2F88430236830
:100D400013F0040F03D0226BB2F5801F06D013F00E
:100D5000080F20D0636BB3F5800F1CD1654AD2F821
:100D60008400D2F884106368A66843EA861300F40E
:100D700040300343206943EA006301F0E0410B4344
:100D8000C2F88430D2F88C3023F01F03A16A0139F5
:100D90000B43C2F88C30236813F4806F03D0236DAB
:100DA000B3F1005F28D0236813F4006F11D063689B
:100DB000A26843EA8213E2685208013A43EA024316
:100DC000226943EA0263626943EA0273494AC2F84C
:100DD0008430494B01221A6000F0CAFC0646454B9C
:100DE0001B6813F0006F7FF4F7AE00F0C1FC801BAE
:100DF0000228F4D90320F3E63E48D0F88430C3F348
:100E000001435A1CD0F884606368A16843EA8113E7
:100E1000E1684908013943EA014343EA426306F0C5
:100E2000E0421343C0F88430BDE7344B00221A601F
:100E300000F09EFC05462F4B1B6813F0005F06D0A8
:100E400000F096FC401B0228F5D90320C8E6236871
:100E500013F0040F01D0226B22B113F0080F1AD047
:100E6000636BC3B9234AD2F88810A369E06943EAE7
:100E7000801301F440310B43616A43EA0163C2F815
:100E80008830D2F88C3023F4F853E16A013943EA10
:100E90000123C2F88C30236813F4807F03D0636D84
:100EA000B3F1006F11D0154B01221A6000F060FC05
:100EB0000446104B1B6813F0005F18D100F058FC7B
:100EC000001B0228F5D903208AE60A48D0F88810CA
:100ED000A369E26943EA8213226A5208013A43EAAB
:100EE000024301F070621343C0F88830DBE7002052
:100EF00076E600BF00380240680047427000474273
:100F00002DE9F843594B9B6803F00C03082B08D0DC
:100F10000C2B5BD0042B02D05548BDE8F883554814
:100F2000FBE7524B5A6802F03F025B6813F4800FF4
:100F30002BD04E4B5B68C3F3881358010021C01AB5
:100F400061F100018C0144EA90648501B5EB000871
:100F500064EB01094FEAC90141EA58714FEAC80040
:100F6000C01841F100014B0243EAD053440220462D
:100F700019460023FFF74CF93C4B5B68C3F3014370
:100F800001335B00B0FBF3F0C7E7384B5B68C3F39A
:100F9000881358010021C01A61F100018C0144EA54
:100FA000906485012E1A64EB0107F90041EA56713D
:100FB000F000C01841F100018B0243EA9053840213
:100FC000204619460023FFF723F9D5E7274B5A6837
:100FD00002F03F025B6813F4800F26D0234B5B685E
:100FE000C3F3881358010021C01A61F100018E017A
:100FF00046EA906687013C1A66EB0105E90041EA82
:101000005471E000C01841F100014B0243EAD05393
:101010004402204619460023FFF7FAF8134B5B6899
:10102000C3F30273B0FBF3F077E7104B5B68C3F3D5
:1010300088135C010025E41A65F10005AE0146EA5B
:101040009466A701381B66EB0501CC0044EA507496
:10105000C500E81844F100018B0243EA9053840272
:10106000204619460023FFF7D3F8D7E7003802409F
:101070000024F40000127A0070B582B004460368C0
:1010800013F0010F41D0A64B9B6803F00C03042B17
:1010900032D0A34B9B6803F00C03082B27D0A04B46
:1010A0009B6803F00C030C2B59D06368B3F5803FA9
:1010B0005BD0B3F5A02F5ED0994B1A6822F4803232
:1010C0001A601A6822F480221A606368002B5CD0D0
:1010D00000F04EFB0546924B1B6813F4003F14D101
:1010E00000F046FB401B6428F5D903209FE18C4BA0
:1010F0005B6813F4800FD2D0894B1B6813F4003F58
:1011000003D06368002B00F08D81236813F0020F79
:1011100060D0834B9B6813F00C0F4AD0804B9B68C8
:1011200003F00C03082B3FD07D4B9B6803F00C03AE
:101130000C2B68D0E368002B74D07A4B01221A6024
:1011400000F016FB0546764B1B6813F0020F60D1CA
:1011500000F00EFB401B0228F5D9032067E1704B1D
:101160005B6813F4800FA0D0C6E76D4A136843F4A0
:1011700080331360A9E76A4B1A6842F480221A6030
:101180001A6842F480321A609FE700F0F1FA0546CF
:10119000634B1B6813F4003FB7D000F0E9FA401B23
:1011A0006428F5D9032042E15D4B5B6813F4800F9E
:1011B000BAD15B4B1B6813F0020F03D0E368012B1D
:1011C00040F03281564A136823F0F803216943EA5C
:1011D000C1031360236813F0080F47D06369002B25
:1011E00032D0514B01221A6000F0C2FA05464C4B36
:1011F0005B6F13F0020F39D100F0BAFA401B0228DE
:10120000F5D9032013E1464B5B6813F4800F91D1AD
:10121000CFE7434A136823F0F803216943EAC10387
:101220001360D7E73F4B00221A6000F0A1FA054691
:101230003B4B1B6813F0020FCCD000F099FA401B17
:101240000228F5D90320F2E0374B00221A6000F0A3
:101250008FFA0546324B5B6F13F0020F06D000F099
:1012600087FA401B0228F5D90320E0E0236813F039
:10127000040F79D02A4B1B6C13F0805F0DD1002333
:101280000193274B1A6C42F080521A641B6C03F0D6
:1012900080530193019B012500E00025234B1B682F
:1012A00013F4807F21D0A368012B32D0052B3FD0CF
:1012B0001B4B1A6F22F001021A671A6F22F0040208
:1012C0001A67A368002B3DD000F052FA0646144B73
:1012D0001B6F13F0020F46D100F04AFA801B41F257
:1012E00088339842F3D90320A1E0104A136843F4ED
:1012F0008073136000F03CFA06460C4B1B6813F435
:10130000807FD0D100F034FA801B0228F5D9032069
:101310008DE0034A136F43F001031367D1E700BF69
:101320000038024000004742800E474200700040F3
:10133000414B1A6F42F004021A671A6F42F0010221
:101340001A67BEE700F014FA06463B4B1B6F13F01A
:10135000020F08D000F00CFA801B41F2883398424B
:10136000F3D9032063E0E5B9A369002B5ED0324ACC
:10137000926802F00C02082A5BD0022B17D02F4B88
:1013800000221A6000F0F4F904462B4B1B6813F09E
:10139000007F45D000F0ECF9001B0228F5D90320AE
:1013A00045E0254A136C23F080531364DCE7234B9C
:1013B00000221A6000F0DCF905461F4B1B6813F091
:1013C000007F06D000F0D4F9401B0228F5D9032095
:1013D0002DE0E369226A1343626A43EA8213A26A38
:1013E0005208013A43EA0243E26A43EA0263226B8B
:1013F00043EA0273104A5360104B01221A6000F056
:10140000B7F904460C4B1B6813F0007F06D100F0BF
:10141000AFF9001B0228F5D9032008E0002006E000
:10142000002004E0012002E0012000E0002002B0E2
:1014300070BD0120FBE700BF00380240600047425A
:1014400000230F2B00F2D380F0B583B039E00622E1
:1014500000E00022B2403A430234654E46F82420B0
:10146000644A1468EA4324EA05064F6817F4803F8B
:1014700001D045EA04065F4C2660646802EA04066F
:101480004F6817F4003F01D045EA0406594C6660E6
:10149000A46802EA04064F6817F4801F01D045EAE9
:1014A0000406544CA660E46822404E6816F4001FFF
:1014B00001D045EA04024F4CE26001330F2B00F2E9
:1014C000948001229A400C6804EA020532EA04047E
:1014D000F3D14C68661E012E03D9112C01D0122CB9
:1014E00012D186685F000324BC4026EA0406CC685B
:1014F000BC4034438460466826EA02064C68C4F364
:1015000000129A4032434260C7685E000324B44030
:10151000E24327EA04078C68B4403C43C4604C684B
:10152000022C01D0122C13D1DF08083750F827E025
:1015300003F007044FEA840C0F2404FA0CF42EEA9B
:10154000040E0C6904FA0CF444EA0E0440F8274037
:10155000046814404A6802F00302B2402243026069
:101560004A6812F0805FA8D000220192224A546C8F
:1015700044F480445464526C02F480420192019A13
:101580009C08A61C1A4A52F8267003F00302960023
:101590000F22B24027EA0207184A90423FF459AF9F
:1015A00002F58062904216D002F58062904214D01B
:1015B00002F58062904212D002F58062904210D013
:1015C00002F5806290420ED002F5806290423FF4B4
:1015D0003EAF07223EE701223CE702223AE7032220
:1015E00038E7042236E7052234E703B0F0BD704740
:1015F00000380140003C0140003802400000024039
:101600000AB181617047090481617047436931EA19
:10161000030301D0816170470904816170470000B4
:10162000074AD36823F4E0631B041B0C000200F498
:10163000E060034343F0BF6343F40033D36070477B
:1016400000ED00E030B4174BDB68C3F30223C3F1B5
:101650000704042C28BF04241D1D062D18D9033BA4
:101660004FF0FF3505FA04F421EA0401994005FA28
:1016700003F322EA0303194300280BDB0901C9B273
:1016800000F1604000F5614080F8001330BC704705
:101690000023E5E700F00F000901C9B2024B19541D
:1016A000F4E700BF00ED00E014ED00E00138B0F118
:1016B000807F0AD2064B5860064AF02182F8231038
:1016C0000020986007221A6070470120704700BF11
:1016D00010E000E000ED00E010B504460E4B187875
:1016E0004FF47A73B3FBF0F30C4A1068B0FBF3F0DD
:1016F000FFF7DCFF68B90F2C01D901200AE00022B6
:1017000021464FF0FF30FFF79DFF054B1C60002086
:1017100000E0012010BD00BF0000002008000020F4
:101720000400002008B50B4B1A6842F400721A60DE
:101730001A6842F480621A601A6842F480721A6071
:101740000320FFF76DFF0F20FFF7C6FFFFF726F816
:10175000002008BD003C0240034A1168034B1B787F
:101760000B441360704700BF384C0020000000207D
:10177000014B1868704700BF384C002038B504464C
:10178000FFF7F6FF0546B4F1FF3F02D0044B1B788C
:101790001C44FFF7EDFF401BA042FAD338BD00BF49
:1017A0000000002070B504460268136923F440531A
:1017B000C1680B4313618368026913434269134391
:1017C000C2691A430168CB6823F4164323F00C0363
:1017D0001343CB600268536923F4407381690B4360
:1017E0005361C369B3F5004F36D00368654A93422D
:1017F00000F09A8002F58062934200F09580FFF736
:1018000023F90026051846EB06012D1846EB0101C9
:10181000CB0043EA5573EA001546194663689A00FF
:101820009B0F281846EB0101FEF7F2FC564DA5FB75
:1018300000325109642303FB11031B013233A5FB62
:1018400003235B0903F0F00202EB011203F00F0324
:10185000216813448B6093E003684A4A934233D073
:1018600002F5806293422FD0FFF7EEF800260518AC
:1018700046EB06012D1846EB0101CB0043EA5573F8
:10188000EA001546194662683346921846EB030390
:10189000281846EB0101FEF7BBFC3B4DA5FB0032CF
:1018A0005109642303FB1103DB003233A5FB03233F
:1018B0005B095A0002F4F87202EB011203F007030D
:1018C000216813448B605BE0FFF7CEF80026051813
:1018D00046EB06012D1846EB0101CB0043EA557398
:1018E000EA001546194662683346921846EB030330
:1018F000281846EB0101FEF78BFC234DA5FB0032B7
:101900005109642303FB1103DB003233A5FB0323DE
:101910005B095A0002F4F87202EB011203F00703AC
:10192000216813448B602BE0FFF79EF80026051812
:1019300046EB06012D1846EB0101CB0043EA557337
:10194000EA001546194663689A009B0F281846EB73
:101950000101FEF75DFC0C4DA5FB0032510964232B
:1019600003FB11031B013233A5FB03235B0903F0C7
:10197000F00202EB011203F00F03216813448B60A5
:1019800070BD00BF001001401F85EB512DE9F843E9
:1019900005460F4616469946DDF820802C682468D7
:1019A00037EA04030CBF01240024B4421FD1B8F16C
:1019B000FF3FF3D0B8F1000F05D0FFF7D9FEA0EB41
:1019C00009004045EAD92A68D36823F4D073D3606C
:1019D0002A68536923F001035361202385F83930C5
:1019E00085F83A30002385F83830032000E00020E5
:1019F000BDE8F88358B310B5044690F839300BB3FE
:101A0000242384F839302268D36823F40053D36048
:101A10002046FFF7C7FE2268136923F49043136141
:101A20002268536923F02A0353612268D36843F480
:101A30000053D3600020E063202384F8393084F819
:101A40003A3010BD80F83830FEF7CAFED8E70120E2
:101A500070472DE9F04383B01E4690F83930DBB271
:101A6000202B59D104460D469046002958D0002A13
:101A700058D090F83830012B56D0012380F83830F8
:101A80004FF00009C0F83C90212380F83930FFF76F
:101A90006FFE0746A4F82480A4F8268084F83890C6
:101AA00017E000963B46002280212046FFF76EFF9C
:101AB00000283BD12B882268C3F3080353602369B5
:101AC0000BB9023505E0013503E015F8012B236859
:101AD0005A60E38C9BB29BB1E28C92B2013A92B213
:101AE000E284A368B3F5805FDBD000963B4600221A
:101AF00080212046FFF74AFF0028E6D003200CE0B3
:101B000000963B46002240212046FFF73FFF78B970
:101B1000202384F8393000E0022003B0BDE8F083D0
:101B20000120FAE70120F8E70220F6E70320F4E7B6
:101B30000320F2E7002845D0F0B58BB006460468D4
:101B400090F8B932002B38D0032386F8B932E36B12
:101B500013F4807F01D100233361306800F097F8DF
:101B6000344654F810CB6D460FCC0FC50FCC0FC5C3
:101B700094E8030085E80300371D97E80E006046EF
:101B800000F040F80121306800F087F8344654F83E
:101B900010CB6D460FCC0FC50FCC0FC594E80300DA
:101BA00085E8030097E80E00604600F0D9F80123AD
:101BB00086F8B93200200BB0F0BD80F8B832FEF7DD
:101BC00047FEC1E701207047002301330C4A9342CE
:101BD00011D80269002AF8DA036943F001030361AE
:101BE00000230133064A934207D8026912F0010F1D
:101BF000F7D100207047032070470320704700BFD3
:101C0000400D030084B010B5044603A880E80E0020
:101C1000089B012B1FD1A36B23F48033A363E368DC
:101C200023F4840323F04003E360E36823F44013C8
:101C3000E3600F9B012B09D02046FFF7C5FF069BF1
:101C4000012B1BD0BDE8104004B07047E36843F49B
:101C50008013E360F0E7E36843F04003E36020466D
:101C6000FFF7B2FF0C9B23B9A36B43F48033A3634C
:101C7000E5E7A36B23F48033A363E0E7A36843F0B5
:101C80000603A360A36843F02003A360DAE7836838
:101C900023F0010383600020704708B5C36823F078
:101CA000C043C360012909D069B9C36843F08043C8
:101CB000C3603220FFF762FD002008BDC36843F017
:101CC0000053C360F5E70120F7E70000890141F008
:101CD0002001016100230133054A934205D80269BE
:101CE00012F0200FF7D1002070470320704700BF8B
:101CF000400D03001023036100230133054A934282
:101D000005D8026912F0100FF7D1002070470320A8
:101D1000704700BF400D030082B000230193D0F84C
:101D200040340193019B23F02E030193019B13F494
:101D3000805F01D101290CD0019B13F4805F05D095
:101D400021B9019B23F48053C0F84034002002B035
:101D50007047019B43F48053C0F84034ECE7000027
:101D600084B038B5044605A880E80E002546002357
:101D7000C4F8003EA36B23F40013A363E36B13F4D6
:101D8000807F10D0079B012B06D0D4F8003423F0BD
:101D90000403C4F800340CE0D4F8003443F0040326
:101DA000C4F8003405E0D4F8003423F00403C4F888
:101DB000003410212046FFF789FF2046FFF79AFFE5
:101DC0000022069B93420AD905EB42134FF0FF31E4
:101DD000C3F808150021C3F80C150132F1E7012101
:101DE0002046FFF799FFC820FFF7C8FC0023A36136
:101DF0004FF0FF336361E36B13F4807F17D04FF430
:101E00000073636203F18073A3620D4BC4F8003169
:101E1000089B1BB9A36943F01003A361A269094B96
:101E20001343A3610020BDE8384004B0704780230D
:101E3000636203F5C003A362034BC4F80031E7E714
:101E40000003E000080020A3E0004000054BD3F8A9
:101E5000882042F47002C3F888204FF000629A6034
:101E6000704700BF00ED00E000F1080343604FF051
:101E7000FF328260C3600361002303607047002368
:101E80000361704743684B609A688A60516099604B
:101E90000861036801330360704730B40D68B5F121
:101EA000FF3F11D000F108031C465B681A68AA4284
:101EB000FAD963684B6099608C606160086103685F
:101EC0000133036030BC70470469F2E7036941687D
:101ED00082688A60416851605A68824206D0002256
:101EE00002611A68013A1A601868704782685A607D
:101EF000F5E710B5044601F0BDFCA26BE36B9A4216
:101F000004D0002401F0D8FC204610BD0124F9E7DC
:101F100010B5044601F0AEFCA36B23B9012401F017
:101F2000CBFC204610BD0024F9E770B504461546E9
:101F3000866B026C5AB903681BB100200136A66398
:101F400070BD806800F0C8FF0023A360F6E76DB99C
:101F5000406801F035FE226C636813446360A26838
:101F6000934219D3236863602846E7E7C06801F00D
:101F700027FE226C5142E3689B1AE3602268934279
:101F800002D2A3680B44E360022D01D00020D5E704
:101F900026B1013E0020D1E72846CFE70020CDE75B
:101FA0000346026C6AB110B50846D9681144D9607D
:101FB0009C68A14201D31968D960D96801F000FE7C
:101FC00010BD704738B5054601F054FC95F8454002
:101FD00064B203E000F06AFF013C64B2002C08DD4B
:101FE0006B6A33B105F1240000F0CCFE0028F3D079
:101FF000F0E7FF2385F8453001F05EFC01F03AFC84
:1020000095F8444064B203E000F050FF013C64B234
:10201000002C08DD2B6933B105F1100000F0B2FE91
:102020000028F3D0F0E7FF2385F8443001F044FCAA
:1020300038BD000038B5E0B10D46044601F01AFC89
:102040002168E26B236C03FB0210A0600020A063F8
:102050006160013A02FB0313E360FF2384F844301C
:1020600084F84530EDB9236963B901F025FC0120FE
:1020700038BD4FF0500383F31188BFF36F8FBFF368
:102080004F8FFEE704F1100000F07CFE0028ECD03A
:10209000084B4FF080521A60BFF34F8FBFF36F8F22
:1020A000E3E704F11000FFF7DFFE04F12400FFF77F
:1020B000DBFEDAE704ED00E038B51D46049C0B4674
:1020C00049B92460E063236401212046FFF7B2FF91
:1020D00084F84C5038BD2260F4E740B94FF050030B
:1020E00083F31188BFF36F8FBFF34F8FFEE730B5D7
:1020F00085B01C46054653B192B189B94FF05003E3
:1021000083F31188BFF36F8FBFF34F8FFEE74FF05C
:10211000500383F31188BFF36F8FBFF34F8FFEE738
:102120006AB150230393039B502B13D04FF05003FD
:1021300083F31188BFF36F8FBFF34F8FFEE7002942
:10214000EFD04FF0500383F31188BFF36F8FBFF3CD
:102150004F8FFEE7039B012384F8463000949DF8DF
:1021600020302846FFF7A8FF204605B030BD00000C
:10217000F0B585B0019288B10E461D460446B1B156
:10218000022D20D1E36B012B1DD04FF0500383F3C0
:102190001188BFF36F8FBFF34F8FFEE74FF05003EF
:1021A00083F31188BFF36F8FBFF34F8FFEE7036C8C
:1021B000002BE5D04FF0500383F31188BFF36F8FEE
:1021C000BFF34F8FFEE700F077FE074658B9019B3B
:1021D000002B44D04FF0500383F31188BFF36F8F6F
:1021E000BFF34F8FFEE7002739E02A4631462046ED
:1021F000FFF79BFE626A6AB938B13C4B4FF08052E0
:102200001A60BFF34F8FBFF36F8F01F055FB0120B2
:1022100005B0F0BD04F1240000F0B4FD0028F4D0B6
:10222000324B4FF080521A60BFF34F8FBFF36F8F66
:10223000EBE701F041FB0020EAE702A800F0E8FD2F
:10224000012719E0002384F8443021E0002384F8BA
:10225000453023E02046FFF7B5FE00F071FC01F0A9
:1022600009FBA26BE36B9A42BFD3022DBDD0019B49
:10227000002BDED0002FE0D001F01EFB00F0C6FBEB
:1022800001F0F8FA94F844305BB2B3F1FF3FD9D0D3
:1022900094F845305BB2B3F1FF3FD7D001F00CFBAF
:1022A00001A902A800F0C0FDC8B92046FFF721FE31
:1022B0000028CFD0019904F1100000F02FFD204636
:1022C000FFF780FE00F03CFC0028C8D1074B4FF020
:1022D00080521A60BFF34F8FBFF36F8FBFE7204666
:1022E000FFF770FE00F02CFC002091E704ED00E009
:1022F0002DE9F84390B1894690461F460446B1B196
:10230000022F20D1E36B012B1DD04FF0500383F33C
:102310001188BFF36F8FBFF34F8FFEE74FF050036D
:1023200083F31188BFF36F8FBFF34F8FFEE7036C0A
:10233000002BE5D04FF0500383F31188BFF36F8F6C
:10234000BFF34F8FFEE701F0BFFBEFF311864FF0B5
:10235000500383F31188BFF36F8FBFF34F8FA26BCE
:10236000E36B9A4206D3022F04D0002086F3118833
:10237000BDE8F88394F845506DB23A464946204688
:10238000FFF7D3FDB5F1FF3F05D06B1C5BB284F8BE
:1023900045300120EAE7636A0BB90120E6E704F162
:1023A000240000F0EFFC30B1B8F1000F05D001209F
:1023B000C8F80000DAE70120D8E70120D6E70000DE
:1023C000F0B585B0019290B10E460446C1B100F05F
:1023D00073FD074600BB019B002B5CD04FF0500300
:1023E00083F31188BFF36F8FBFF34F8FFEE74FF07A
:1023F000500383F31188BFF36F8FBFF34F8FFEE756
:10240000036C002BE3D04FF0500383F31188BFF32C
:102410006F8FBFF34F8FFEE700273CE03146204629
:10242000FFF7BEFD013DA563236923B901F044FA1E
:10243000012005B0F0BD04F1100000F0A3FC00285D
:10244000F4D0354B4FF080521A60BFF34F8FBFF37B
:102450006F8FEBE701F030FA0020EAE702A800F006
:10246000D7FC012721E0002384F8443029E0002331
:1024700084F845302BE02046FFF7A4FD00F060FB18
:1024800009E02046FFF79EFD00F05AFB2046FFF7CB
:102490003FFD00283DD101F0EDF9A56B002DBDD128
:1024A000019B002BD6D0002FD8D001F005FA00F008
:1024B000ADFA01F0DFF994F844305BB2B3F1FF3FBD
:1024C000D1D094F845305BB2B3F1FF3FCFD001F0EB
:1024D000F3F901A902A800F0A7FC0028D1D12046F9
:1024E000FFF716FD0028C6D0019904F1240000F082
:1024F00015FC2046FFF766FD00F022FB0028CAD13C
:10250000054B4FF080521A60BFF34F8FBFF36F8FB0
:10251000C1E700208DE700BF04ED00E0002300E0EC
:102520000133072B0BD8064A52F83320002AF7D183
:10253000034A42F8331002EBC303586070477047F8
:102540003C4C002070B504460D46164601F092F949
:1025500094F844305BB2B3F1FF3F0DD094F84530AE
:102560005BB2B3F1FF3F0BD001F0A6F9A36B5BB1F7
:102570002046FFF727FD70BD002384F84430EDE7C7
:10258000002384F84530EFE73246294604F1240061
:1025900000F0DCFBECE70000084B1B681B6823B96C
:1025A000074B4FF0FF321A607047044B1B68DB6823
:1025B000DB685A68024B1A60704700BF3000002089
:1025C000D80400202DE9F04780460D46174699466D
:1025D000089EDDF824A00A9C9200A521206B01F042
:1025E000FDFA236B07F18042013A03EB820727F0E3
:1025F000070785B300220F2A07D8A95CA31883F820
:102600003410AB5C0BB10132F5E7002384F84330A2
:10261000372E00D93726E662E66400252565201DA1
:10262000FFF72DFC04F11800FFF729FC2461C6F127
:102630003806A6616462656584F858504A4641468A
:10264000384601F0EBF82060BAF1000F01D0CAF86B
:102650000040BDE8F087002384F83430D8E700005C
:1026600038B50024372C08D804EB840293000E48B8
:102670001844FFF7F9FB0134F4E70C4D2846FFF747
:10268000F3FB0B4C2046FFF7EFFB0A48FFF7ECFB90
:102690000948FFF7E9FB0948FFF7E6FB084B1D6017
:1026A000084B1C6038BD00BF38000020B00400207B
:1026B000C4040020E00400200C050020F8040020E1
:1026C000300000203400002010B5044601F0D2F89C
:1026D000214A136801331360204B1B685BB1204B08
:1026E0001B686BB91D4B1B68DA6AE36A9A4207D80C
:1026F0001A4B1C6004E0194B1C601368012B27D097
:10270000184A1368013313606364E06A164B1B6850
:10271000984201D9144B186000EB8000211D134B27
:1027200003EB8000FFF7AEFB01F0C6F80C4B1B6813
:102730006BB10A4B1B68DA6AE36A9A4207D20C4B08
:102740004FF080521A60BFF34F8FBFF36F8F10BDF1
:10275000FFF786FFD4E700BF980400202C0000207C
:10276000F4040020A8040020AC040020380000205D
:1027700004ED00E010B5044690F8593063B1012B28
:1027800011D0022B0ED04FF0500383F31188BFF30A
:102790006F8FBFF34F8FFEE7006B00F0C9FF20463D
:1027A00000F0C6FF10BD00F0C3FFFBE70F4B1B6836
:1027B000D3B110B501F05EF80D4BDB68DC68201D6D
:1027C000FFF784FB0B4A1368013B1360074A136849
:1027D000013B136001F070F82046FFF7CBFF034B7D
:1027E0001B68002BE6D110BD704700BF9C04002081
:1027F0000C0500209804002008B5FFF7D7FF064B12
:102800001B68012BF9D9054B4FF080521A60BFF3BA
:102810004F8FBFF36F8FF0E73800002004ED00E02A
:1028200070B504460D46174B1E68174B18680430E8
:10283000FFF74CFBB4F1FF3F0DD03444124B1B6843
:102840005C60A64210D9114B18680F4B196804310F
:10285000FFF723FB70BD002DEFD00B4B196804313F
:102860000B48FFF70FFBF5E70A4B1868064B196892
:102870000431FFF712FB084B1B68A342EAD9064B51
:102880001C60E7E7200500202C0000203400002019
:10289000F804002030000020D804002070B586B075
:1028A0000B9D0C9C75B1B4B15C260496049E5C2E05
:1028B0001AD04FF0500383F31188BFF36F8FBFF32B
:1028C0004F8FFEE74FF0500383F31188BFF36F8FF4
:1028D000BFF34F8FFEE74FF0500383F31188BFF330
:1028E0006F8FBFF34F8FFEE7049E2563022584F8A8
:1028F000595000250395029405AD01950A9D009558
:10290000FFF760FE2046FFF7DFFE059806B070BDBA
:102910002DE9F04385B00746884614461E469000D0
:1029200000F08EFE00B381465C2000F089FE054673
:10293000B0B1C0F83090E5B1002385F85930039369
:1029400002950D9B01930C9B009333462246414612
:102950003846FFF737FE2846FFF7B6FE012005E0B0
:10296000484600F0E5FEE6E74FF0FF3005B0BDE871
:10297000F0834FF0FF30F9E710B588B000240594DC
:10298000069407AA06A905A800F0E4FD059B02939A
:10299000069B019300942346079A17491748FFF7AF
:1029A0007DFF48B100F04CFB0346012B06D0B3F18C
:1029B000FF3F18D008B010BD0023F6E74FF05003DA
:1029C00083F31188BFF36F8FBFF34F8F0C4B4FF022
:1029D000FF321A600B4B01221A600B4B00221A6067
:1029E00000F0EAFFE6E74FF0500383F31188BFF3EE
:1029F0006F8FBFF34F8FFEE76C3C0008F92700088C
:102A0000D8040020F404002020050020024A1368A6
:102A100001331360704700BFA4040020014B186805
:102A2000704700BF20050020F8B53A4B1B68002B0B
:102A300065D1394B1D6801351D60C5B9374B1B6821
:102A40001B6843B14FF0500383F31188BFF36F8FBE
:102A5000BFF34F8FFEE7314A1168314B18681060A1
:102A60001960304A136801331360FFF795FD2E4B50
:102A70001B68AB420CD900242C4B1B68DB6A03EBB0
:102A800083039A002A4B9B58012B3DD901243BE03C
:102A9000002416E0244B4FF0FF321A60ECE7224A84
:102AA0001360E9E703EB83039A003946204810449A
:102AB000FFF7E8F9F26A1D4B1B68DB6A9A4200D304
:102AC0000124164B1B681B68002BE3D0134B1B68BB
:102AD000DB68DE6873689D42E1D3371D3846FFF737
:102AE000F5F9B36A1BB106F11800FFF7EFF9F36AC5
:102AF000104A12689342D5D90E4A1360D2E70E4AA3
:102B000013680133136000240C4B1B6803B10124CC
:102B10002046F8BDA404002020050020300000203D
:102B200034000020DC040020D80400202C00002009
:102B300038000020AC040020A00400202405002060
:102B400038B5344B1B6843B94FF0500383F31188F9
:102B5000BFF36F8FBFF34F8FFEE700F08BFE2D4B5F
:102B60001A68013A1A601B68002B4DD12A4B1B686A
:102B70000BB9002449E00024284B1B681BB3274BEA
:102B8000DB68DC6804F11800FFF7A0F9251D284672
:102B9000FFF79CF9E06A224B1B68984201D9204B51
:102BA000186000EB800029461E4B03EB8000FFF706
:102BB00069F9E26A1C4B1B68DB6A9A42DCD31B4B47
:102BC00001221A60D8E70CB1FFF7E6FC184B1C682D
:102BD00074B9164B1C68C4B1164B4FF080521A6082
:102BE000BFF34F8FBFF36F8F01240EE0013C07D07E
:102BF000FFF71AFF0028F9D00C4B01221A60F5E705
:102C00000B4B00221A60E4E7002400F055FE20463A
:102C100038BD00BFA404002098040020E004002078
:102C2000AC040020380000202C00002024050020E7
:102C3000A004002004ED00E010B5A8B104460F4B3D
:102C40001B6843B14FF0500383F31188BFF36F8FBC
:102C5000BFF34F8FFEE7FFF7D9FE00212046FFF7B5
:102C6000DFFDFFF76DFF38B9054B4FF080521A605A
:102C7000BFF34F8FBFF36F8F10BD00BFA4040020C0
:102C800004ED00E0204B1B681BB1204B01221A60B1
:102C900070471E4B00221A601D4B1B6803EB83011B
:102CA0008A001C498A585AB90BB1013BF6E74FF02C
:102CB000500383F31188BFF36F8FBFF34F8FFEE78D
:102CC00010B403EB830082000A44506840685060EF
:102CD00003EB8304A20014460832114488420DD04D
:102CE00003EB830291000B4A0A445268D1680A4AF6
:102CF0001160074A13605DF8044B70474068054A4D
:102D000022445060ECE700BFA4040020240500200A
:102D1000AC040020380000202C00002058B110B571
:102D20000C46094B19681831FFF7B7F80121204606
:102D3000FFF776FD10BD4FF0500383F31188BFF30A
:102D40006F8FBFF34F8FFEE72C00002038B570B1B6
:102D50000C4615460A4B19681831FFF793F80DB168
:102D60004FF0FF3429462046FFF75AFD38BD4FF09B
:102D7000500383F31188BFF36F8FBFF34F8FFEE7CC
:102D80002C00002038B5C368DC6824B304F11805B2
:102D90002846FFF79BF8184B1B682BBB251D2846C0
:102DA000FFF794F8E06A154B1B68984201D9134B62
:102DB000186000EB80002946114B03EB8000FFF701
:102DC00061F8E26A0F4B1B68DB6A9A4211D9012055
:102DD0000D4B18600EE04FF0500383F31188BFF3E2
:102DE0006F8FBFF34F8FFEE729460848FFF74AF879
:102DF000E7E7002038BD00BFA4040020AC04002099
:102E0000380000202C00002024050020E0040020D1
:102E1000034B1B680360034B1B684360704700BF94
:102E2000DC04002020050020F8B5C8B10C4605469A
:102E3000F9B100F01FFD1B4B19686B68C81A2268B6
:102E4000B2F1FF3F26D02F68174E3668B74201D047
:102E50008B4224D9824215D80023236001241AE032
:102E60004FF0500383F31188BFF36F8FBFF34F8F81
:102E7000FEE74FF0500383F31188BFF36F8FBFF36A
:102E80004F8FFEE75B1A134423602846FFF7C0FF0D
:102E9000002400E0002400F00FFD2046F8BD0124CE
:102EA000F9E700BF20050020DC040020014B0122CF
:102EB0001A60704724050020054B1B6833B1054B91
:102EC0001B680BB10020704702207047012070473B
:102ED000F4040020A404002000283BD038B50446A8
:102EE0001E4B1B68834208D04FF0500383F31188B8
:102EF000BFF36F8FBFF34F8FFEE7036D43B94FF002
:102F0000500383F31188BFF36F8FBFF34F8FFEE73A
:102F1000013B0365C16AC26C91421DD00BB1002018
:102F200038BD051D2846FEF7D1FFE06CE062C0F118
:102F30003803A3610A4B1B68984201D9084B1860FB
:102F400000EB80002946074B03EB8000FEF79AFF59
:102F50000120E5E7002070470020E1E72C00002079
:102F6000AC04002038000020064B1A6813682BB907
:102F70000123036023B9D368186870470023F8E77A
:102F8000002070472805002008B54160006191428B
:102F90000CD8D21A83699A4201D3012008BD011DC1
:102FA000094B1868FEF779FF0020F7E79A4201D233
:102FB000994206D2011D054B1868FEF76EFF0020EE
:102FC000ECE70120EAE700BF2C05002028050020DF
:102FD00030B583B000F04EFC114B1B681BB100F004
:102FE0006BFC03B030BD0F4D2846FEF73DFF0E4C85
:102FF0002046FEF739FF0D4B1D600D4B1C60002372
:1030000000930C4B0C4A10210A20FFF766F8044B82
:1030100018600028E3D00949FFF780FADFE700BF16
:103020004C060020D0050020E405002028050020E3
:103030002C050020FC05002030050020743C000811
:1030400010B588B0FFF7C4FF124B1B68CBB100244A
:103050000594069407AA06A905A800F087FA059B1F
:103060000293069B0193022300932346079A0A4981
:103070000A48FFF713FC0A4A106010B1012008B09B
:1030800010BD4FF0500383F31188BFF36F8FBFF370
:103090004F8FFEE74C0600207C3C0008A53300085B
:1030A00050060020C0B110B584B014461A4603463D
:1030B0001648006838B300910194029305291CDC7E
:1030C000FFF7FAFE022810D000231A4669460F487F
:1030D0000068FFF74DF814E04FF0500383F31188B8
:1030E000BFF36F8FBFF34F8FFEE70023069A694649
:1030F00006480068FFF73CF803E000236946FFF745
:10310000F7F804B010BD0020FBE700BF4C0600201C
:1031100070B582B01B4B1B681A6862B3DB681E680F
:10312000DC68251D2846FEF7D1FE236A2046984715
:1031300094F8283013F0040FECD0A36933449E4276
:1031400007D26360246129460E4B1868FEF7A5FE7E
:10315000E0E7002100910B4632462046FFF7A2FF30
:103160000028D7D14FF0500383F31188BFF36F8F3E
:10317000BFF34F8FFEE7044A1068024908601360EE
:1031800002B070BD280500202C05002038B505468A
:10319000FFF744FC0446074B1B68834205D8002315
:1031A0002B60044B1C60204638BDFFF7B1FF0123A4
:1031B0002B60F6E7F805002070B582B005460E4694
:1031C000174B1B68DB68DC68201DFEF77FFE94F858
:1031D000283013F0040F08D123F0010384F82830BD
:1031E000236A2046984702B070BDA1692B4632463B
:1031F00029442046FFF7C8FE0028F1D000210091A5
:103200000B462A462046FFF74DFF0028E8D14FF035
:10321000500383F31188BFF36F8FBFF34F8FFEE727
:103220002805002070B582B006460C46FFF7EEFB7D
:1032300001A8FFF7ABFF019B23BB05460CB9B042C9
:1032400017D224B1114A12681268CAB90124224661
:10325000711B0F4B1868FFF775F9FFF771FC98B9F0
:103260000C4B4FF080521A60BFF34F8FBFF36F8F3C
:103270000AE0FFF765FC29463046FFF79DFF03E0B3
:103280001C46E4E7FFF75CFC02B070BD2C05002093
:103290004C06002004ED00E010B588B006E0079968
:1032A0000698059B9847049B002B0BDA002204A983
:1032B0003B4B1868FFF784F800286FD0049B002B65
:1032C000F1DAECE7069C636913B1201DFEF7FEFD01
:1032D00003A8FFF75BFF049B092BE7D8DFE803F0A7
:1032E0000505053037500505303794F8283043F090
:1032F000010384F82830059BA16902461944204641
:10330000FFF742FE0028D1D0236A2046984794F860
:10331000283013F0040FC9D0A269002100910B4698
:10332000059802442046FFF7BDFE0028BED14FF0AD
:10333000500383F31188BFF36F8FBFF34F8FFEE706
:1033400094F8283023F0010384F82830AEE794F88D
:10335000283043F0010384F828300599A16131B188
:103360000346024601442046FFF70EFE9EE74FF05B
:10337000500383F31188BFF36F8FBFF34F8FFEE7C6
:1033800094F8283013F0020F04D023F0010384F8DE
:1033900028308BE7204600F0CBF987E708B010BD56
:1033A0004C06002000B583B001A8FFF7DDFD0199B0
:1033B000FFF738FFFFF770FFF6E70000EFF3058334
:1033C0007BB9EFF3108313B9EFF311831BB1094BF2
:1033D0001B68022B08D0074B186840B901221A60FD
:1033E00070476FF0050070476FF0050070474FF0B1
:1033F000FF307047B008002008B5EFF30583A3B98C
:10340000EFF3108313B9EFF311831BB10B4B1B6860
:10341000022B0DD0094B1B68012B0CD1074B02224C
:103420001A60FFF7A9FA002008BD6FF00500FBE75E
:103430006FF00500F8E74FF0FF30F5E7B008002027
:10344000F0B587B000240594EFF30584002C38D143
:10345000EFF3108313B9EFF311831BB12D4B1B68EE
:10346000022B2ED068B322B31568936903B91823D1
:103470005C1E372C49D8546814F0010F47D15669A7
:103480006EB14FEA960C94682CB1D7685B2F02D9C5
:10349000176907B1C6B92CB14FF0FF340EE04FF0F9
:1034A000800CF0E7D4688CB9146994B14FF0FF3404
:1034B00004E01546002418234FF0800C012C0AD09C
:1034C000ACB1059807B0F0BD0124F7E74FF0FF3429
:1034D000F4E70024F2E714699268029201940093E1
:1034E0000B4662462946FFF7D9F90590E9E705AA98
:1034F000019200930B461FFA8CF22946FFF708FA57
:103500000128DED000230593DBE70020DAE7002066
:10351000D8E700BFB008002008B5EFF3058383B9F2
:10352000EFF3108313B9EFF311831BB1084B1B6842
:10353000022B09D008B9002008BDFFF77DFB002051
:10354000FAE76FF00500F7E76FF00500F4E700BF5A
:10355000B0080020034B0360034B0B608023136013
:10356000704700BF5408002054060020034B03603E
:10357000034B0B604FF4807313607047B40C002052
:10358000B4080020124A12F0070F1ED0D11D21F0FE
:103590000701C1F5705313440A460E48026000212A
:1035A00041601344083B23F007030B480360596054
:1035B0001960991A51601360084B1960084B196023
:1035C000084B4FF000421A6070474FF47053E4E725
:1035D000140D002020490020100D00201C4900205F
:1035E000184900201449002010B4134B1A461B68D8
:1035F0008342FBD35168541884420AD0416844186E
:10360000A3420BD00360904200D010605DF8044BE1
:1036100070474068014451601046EFE7074C24684A
:10362000A34206D05B681944416013681B680360BD
:10363000E9E70460E7E700BF20490020100D002003
:1036400070B50446FFF7E2F9344B1B68A3B1344B65
:103650001B681C424AD134B1083414F0070F02D061
:1036600024F007040834002C42D02E4B1B68A342E0
:103670004DD32D4B1D6804E0FFF784FFE7E72B4691
:1036800015466A68A24202D22A68002AF7D1234A64
:103690001268AA423DD01E6808362A681A606B6814
:1036A0001B1B102B10D9281910F0070F08D04FF052
:1036B000500383F31188BFF36F8FBFF34F8FFEE783
:1036C00043606C60FFF790FF6A6816490B689B1AAD
:1036D0000B60164909688B4201D214490B60104BEC
:1036E0001B6813436B6000232B6002E0002600E0A0
:1036F0000026FFF725FA16F0070F0CD04FF0500305
:1037000083F31188BFF36F8FBFF34F8FFEE700265F
:10371000EFE70026EDE7304670BD00BF100D00203A
:103720001449002018490020204900201C4900208D
:1037300080B338B50446A0F1080550F8043C164A99
:103740001268134208D14FF0500383F31188BFF37E
:103750006F8FBFF34F8FFEE750F8081C41B14FF059
:10376000500383F31188BFF36F8FBFF34F8FFEE7D2
:1037700023EA020340F8043CFFF748F954F8041C1C
:10378000064A13680B4413602846FFF72DFFFFF726
:10379000D7F938BD704700BF1449002018490020F0
:1037A00082B0002301930D4B1B68B3F1FF3F08D09B
:1037B0004FF0500383F31188BFF36F8FBFF34F8F28
:1037C000FEE74FF0500383F31188BFF36F8FBFF311
:1037D0004F8F019B002BFCD002B070470C000020E3
:1037E00008480068006880F308884FF0000080F304
:1037F000148862B661B6BFF34F8FBFF36F8F00DFDF
:1038000000BF000008ED00E0DFF80C00016841F4A3
:10381000700101607047000088ED00E04FF0807398
:1038200040F8043C21F0010140F8081C054B40F829
:103830000C3C40F8202C6FF0020340F8243C443844
:10384000704700BFA1370008000000000000000022
:10385000074B19680868B0E8F04F80F30988BFF398
:103860006F8F4FF0000080F311887047AFF3008036
:103870002C0000204FF0500383F31188BFF36F8FAB
:10388000BFF34F8F0A4A136801331360012B00D036
:103890007047084B1B6813F0FF0FF9D04FF050032F
:1038A00083F31188BFF36F8FBFF34F8FFEE700BF25
:1038B0000C00002004ED00E0094B1B6843B94FF0F9
:1038C000500383F31188BFF36F8FBFF34F8FFEE771
:1038D000013B034A13600BB983F31188704700BFA3
:1038E0000C000020000000000000000000000000AC
:1038F000EFF30980BFF36F8F154B1A681EF0100F9E
:1039000008BF20ED108A20E9F04F10602DE9090072
:103910004FF0500080F31188BFF34F8FBFF36F8FCC
:10392000FFF7B0F94FF0000080F3118809BC196867
:103930000868B0E8F04F1EF0100F08BFB0EC108A16
:1039400080F30988BFF36F8F704700BFAFF300802B
:103950002C00002008B54FF0500383F31188BFF30B
:103960006F8FBFF34F8FFFF75FF818B1034B4FF026
:1039700080521A60002383F3118808BD04ED00E033
:10398000084A0023136008490B60084B1B6808496C
:10399000A1FB03139B09013B06490B60072313603E
:1039A000704700BF10E000E018E000E008000020D1
:1039B000D34D621014E000E03A4B1A683A4B9A4239
:1039C00029D0384B1A68394B9A422DD010B582B0A5
:1039D000374B1A78D2B20192FF221A701B78DBB2F1
:1039E0008DF803309DF8033003F05003314A137013
:1039F000314B07221A609DF8033013F0800F1CD062
:103A00002D4A1368013B13609DF803305B00DBB265
:103A10008DF80330EFE74FF0500383F31188BFF3C5
:103A20006F8FBFF34F8FFEE74FF0500383F3118882
:103A3000BFF36F8FBFF34F8FFEE71F4B1B68032B46
:103A400008D04FF0500383F31188BFF36F8FBFF39B
:103A50004F8FFEE71B0203F4E063174A1360019BDC
:103A6000DBB2134A1370154B1A6842F470021A60E5
:103A70001A6842F070421A60FFF782FF0024104B70
:103A80001C60FFF7C1FE0F4A136843F04043136008
:103A9000FFF7A6FEFFF7F6F8FFF782FE204602B01A
:103AA00010BD00BF00ED00E071C20F4170C20F41B8
:103AB00000E400E0284900202C49002020ED00E02F
:103AC0000C00002034EF00E0EFF305830F2B0FD93B
:103AD000104A9B5CDBB2104A12789A4208D94FF028
:103AE000500383F31188BFF36F8FBFF34F8FFEE74F
:103AF0000A4B1B6803F4E063094A1268934208D931
:103B00004FF0500383F31188BFF36F8FBFF34F8FD4
:103B1000FEE77047F0E300E0284900200CED00E0EC
:103B20002C490020DFF834D0002103E00C4B5B5817
:103B3000435004310B480C4B42189A42F6D30B4ABF
:103B400002E0002342F8043B094B9A42F9D3FEF706
:103B50007DF900F011F8FCF7E1FD7047000002204C
:103B6000943C0008000000201000002010000020FD
:103B70007C4C0020FEE7000070B50D4D0D4C641B21
:103B8000A4100026A64209D10B4D0C4C00F02EF8D3
:103B9000641BA4100026A64205D170BD55F8043B55
:103BA00098470136EEE755F8043B98470136F2E7AF
:103BB0008C3C00088C3C00088C3C0008903C0008C1
:103BC0000A44914200F1FF3300D1704710B511F85B
:103BD000014B03F8014F9142F9D110BD0244034655
:103BE000934200D1704703F8011BF9E7F8B500BF15
:103BF000F8BC08BC9E467047F8B500BFF8BC08BCCE
:043C00009E46704725
:103C04004B616C697374610D0A00000048656C6C4B
:103C14006F20576F726C64202121210D0A0000006F
:103C240064656661756C745461736B00243C0008B0
:103C34000000000000000000000000000000000080
:103C44000002000018000000000000000000000056
:103C54000000000000000000010203040607080938
:103C6400000000000102030449444C450000000028
:103C7400546D725100000000546D7220537663003D
:083C8400BCC5FF7F0100000038
:043C8C00F501000836
:043C9000D101000856
:103C940001000000100000000024F400AAAAAAAA4F
:0400000508003B258F
:00000001FF
